:1000000088060120E9020000E5020000E502000088
:10001000E5020000E5020000E5020000000000002B
:10002000000000000000000000000000E5020000E9
:10003000E502000000000000E5020000E50200000B
:10004000E5020000E5020000E5020000E502000014
:10005000E5020000E5020000E5020000E502000004
:10006000E5020000E5020000E50200009910000032
:10007000E5020000E5020000E5020000E5020000E4
:10008000E5020000E5020000E5020000E5020000D4
:10009000E5020000E5020000E5020000E5020000C4
:1000A000E5020000E5020000E5020000E5020000B4
:1000B000E5020000E5020000E5020000690E000014
:1000C000750E0000810E00008D0E0000990E0000DC
:1000D000E5020000E5020000E5020000E502000084
:1000E000E5020000E5020000000000000000000042
:1000F000000000006D0F0000E5020000E5020000B6
:10010000E5020000E5020000E5020000E502000053
:10011000E5020000E5020000E5020000E502000043
:10012000E5020000E5020000E5020000E502000033
:10013000E5020000E5020000E5020000E502000023
:10014000E5020000E5020000E5020000E502000013
:10015000E5020000E5020000E5020000E502000003
:10016000E5020000E5020000E5020000E5020000F3
:10017000E5020000E5020000E5020000E5020000E3
:10018000E5020000E5020000E5020000E5020000D3
:10019000E5020000E5020000E5020000E5020000C3
:1001A000E5020000E5020000E5020000E5020000B3
:1001B000E5020000E5020000E5020000E5020000A3
:1001C000E5020000E5020000E5020000E502000093
:1001D000E5020000E5020000E5020000E502000083
:1001E000E5020000E5020000E5020000E502000073
:1001F000E5020000E5020000E5020000E502000063
:10020000E5020000E5020000E5020000E502000052
:10021000E5020000E5020000E5020000E502000042
:10022000E5020000E5020000E5020000E502000032
:10023000E5020000E5020000E5020000E502000022
:10024000E5020000E5020000E5020000E502000012
:10025000E5020000E5020000E5020000E502000002
:10026000E502000010B5054C237833B9044B13B1F7
:100270000448AFF300800123237010BD80000020EC
:1002800000000000EC2900000C4B43B10C480D4964
:1002900010B5AFF300800C48036823B910BD0A48BD
:1002A000036833B97047094B002BF7D0BDE8104005
:1002B0001847064B002BF5D0184700BF0000000080
:1002C000EC29000084000020EC2900000000000060
:1002D00008B5024B9847024B984708BD5D050000E2
:1002E00041140000FEE7000008B51C4B1C4A9A426E
:1002F00010D01C4B194A9A420CD2013B9B1A23F096
:10030000030304331344164951F8040B42F8040B59
:100310009A42F9D1144B154A9A420AD2013B9B1AD0
:1003200023F0030304331344002142F8041B9342D7
:10033000FBD10F4B0F4A22F07F029A60D3F888203E
:1003400042F47002C3F88820BFF34F8FBFF36F8F62
:10035000094B9847094B9847FEE700BF0000002073
:10036000EC29000074000020880600208000002096
:1003700000ED00E00000000061140000C112000068
:10038000334B0822C3F8042102F18042C3F828212C
:100390004FF04041C3F8281193F8432102F0FE02C8
:1003A00042F0010283F8432193F8312102F00F0259
:1003B00042F0100283F831211022C3F8842002F1A8
:1003C0008042C3F8A820C3F8A81093F8C42002F014
:1003D000FE0242F0010283F8C42093F8B22002F03A
:1003E000F00242F0010283F8B2202022C3F88420F8
:1003F00002F18042C3F8A820C3F8A81093F8C520E2
:1004000002F0FE0242F0010283F8C52093F8B22008
:1004100002F00F0242F0100283F8B2204022C3F82B
:10042000842002F18042C3F8A820C3F8A81093F8F2
:10043000C62002F0FE0242F0010283F8C62093F8C3
:10044000B32002F0F00242F0010283F8B3207047BB
:1004500000800041044A136A43F48073136240220F
:10046000024BC3F82421704700080040001C0040E4
:1004700008B5054B9847054B9847002204490548A5
:10048000054B984708BD00BF5504000081030000DC
:100490000020004348020020AD05000008B54022BE
:1004A000054BC3F8AC20054A936943F08003936180
:1004B000034B984708BD00BF001C004000080040E7
:1004C00009060000104B93F8D92002F0FE0242F01A
:1004D000010283F8D92093F8BC2002F00F0242F009
:1004E000300283F8BC2093F8D82002F0FE0242F0DC
:1004F000010283F8D82093F8BC2002F0F00242F009
:10050000030283F8BC20704700800041064B402264
:10051000C3F8DC204322C3F88C20044A936943F4D7
:1005200000739361704700BF001C0040000800404A
:1005300008B5054B9847002204490548054B9847E4
:10054000054B984708BD00BF0D0500000020014184
:100550003C02002099080000C504000008B50A4BC1
:1005600098470A4B98470A4B98470A4A536943F4FD
:1005700000735361084B9847024608490848094BE5
:100580009847094B984708BDB50B0000710400005F
:100590009D04000000080040951000000024004069
:1005A0004C0200204D0700003105000038B50C4614
:1005B000054658B1081C18BF012039220449054BD3
:1005C000984721462846044B984738BD0020F4E759
:1005D000882500000D090000650B000038B50D46A8
:1005E00004464E220549003018BF0120044B9847AD
:1005F00029462046034B9847002038BD8825000037
:100600000D0900009D0B000008B5014B984708BD7F
:10061000A50E000070B50D461646044660B1081CD4
:1006200018BF012034220549054B984723683246FC
:1006300029462046984770BD0020F3E7A425000016
:100640000D09000070B50D461646044660B1081C41
:1006500018BF01203D220549054B98476368324683
:1006600029462046984770BD0020F3E7A4250000E6
:100670000D090000F8B5844607682FB18D683C4627
:100680000026C2F1010E0BE00E4B9847F8BD7344F3
:10069000A0680344AB420AD22368264653B11C46E5
:1006A00063689342F3D8A06803449B1AF2E7A74219
:1006B00004D034462046044B9847F8BD6046014BB1
:1006C0009847F8BD35090000610900002DE9F047A1
:1006D0004469076901370761037E13F0010F13D1E5
:1006E000037E13F0020F0FD154B36368FB1AA268A4
:1006F000934207D3064600F11408DFF84890DFF86C
:1007000048A012E0BDE8F087037E43F002030376C1
:10071000BDE8F0877569E3682046984785B12C46A7
:100720006B68FB1AAA6893420AD34046C847237CE9
:10073000012BEFD167603A4621464046D047E9E7B2
:10074000BDE8F087690900007506000038B50D4660
:10075000044678B1081C18BF01203B220649074B0C
:10076000984729462046064B984700202061054BB4
:10077000236038BD0020F0E7B82500000D09000017
:10078000B10F0000CD06000010B504465322094900
:10079000003018BF0120084B98472046074B984768
:1007A00020B92046064B9847002010BD6FF010007E
:1007B00010BD00BFB82500000D0900008110000029
:1007C000251000002DE9F8430F469046044628B353
:1007D00031B3101C18BF0120F1221249124B984767
:1007E0000834124D2046A8470028FBD0013F0026C0
:1007F000DFF840900D4D17F8011F2046C8472046EE
:10080000A8470028FBD001364645F4D3084D2046C2
:10081000A8470028FBD03046BDE8F8830020DBE77E
:100820000020D9E7D02500000D090000F3110000D9
:10083000FD110000E51100002DE9F8430F46904638
:100840000446E0B1E9B1101C18BF01204FF48672D4
:100850000D490E4B9847013F002608340C4DDFF838
:1008600034902046A8470028FBD02046C84707F808
:10087000010F01364645F4D33046BDE8F883002029
:10088000E4E70020E2E700BFD02500000D090000EA
:1008900007120000EB11000038B50D46044698B170
:1008A000081C18BF012034220849094B98472946E3
:1008B00004F10800074B9847034618B9064A6260DE
:1008C000064A2260184638BD0020ECE7D02500001B
:1008D0000D090000A511000039080000C50700003F
:1008E00010B5044653220649003018BF0120054BBD
:1008F000984704F10800044B9847002010BD00BF42
:10090000D02500000D090000D111000000B900BE83
:10091000704703684BB18B4209D01B681BB19942E9
:10092000FBD1012070470020704700207047012054
:100930007047000038B504460D46064B984780F0D6
:10094000010039220449C0B2044B984723682B6048
:10095000256038BD13090000EC2500000D090000DA
:1009600003680B600160704703680BB11A6802608E
:10097000184670470346064A126822B1044A1068B6
:100980000344136070470349014A1160F6E700BF52
:100990009C000020880601204FF0FF3070474FF484
:1009A00000534B60002070470120704700207047C3
:1009B00010B45E4B984200F09C805D4B984200F072
:1009C000A6800022036B13F0010F1BD1036B13F001
:1009D000030FFBD1038813F0020F0DD0038823F01F
:1009E00002031B041B0C0380036B13F0030FFBD1EA
:1009F000036B13F0020FFBD101230380036B13F091
:100A0000030FFBD1036B13F0010FFBD1A0F84820BB
:100A10001623484A03FB01239B88C380036BC3F35F
:100A20000B03002BFAD11623424A03FB01239B79C7
:100A30000372036BC3F30B03002BFAD116233D4A59
:100A400003FB0123DA7982701B898380036BC3F374
:100A50000B03002BFAD11623364A03FB01239B7AA2
:100A60008372036BC3F30B03002BFAD11623314AB5
:100A700003FB0123DB7AC372036BC3F30B03002B6D
:100A8000FAD116232B4A03FB01239B898381036B35
:100A900013F0800FFBD11623264A03FB0123DB89C9
:100AA000C381036B13F4807FFBD11623214A03FB20
:100AB00001231B8A0382036B13F4007FFBD11623EF
:100AC0001C4A03FB01235B8A4382036B13F4806F90
:100AD000FBD11622174B02FB01310B7DC3704B88F3
:100AE0000380036B13F0030FFBD100205DF8044B70
:100AF00070474FF080131B68DA0002F4E0621C09B3
:100B000004F070042243C3F382031A435AE74FF000
:100B100080131B68DA0A02F4E0629C0C04F0700493
:100B20002243C3F302431A434CE700BF001C0043B7
:100B3000002000430C26000000F13D40A0F5E050ED
:100B4000C0F38720012807D008B588220349002078
:100B5000034B9847002008BD002070472426000062
:100B60000D09000038B50C460546D922074900306A
:100B700018BF0120064B98472C602046054B98472C
:100B800001462046044B984738BD00BF242600008C
:100B90000D090000390B0000B1090000026813883C
:100BA0009BB243F002031380136B13F0030FFBD1CE
:100BB0007047000008B50C4A13889BB213800B4B9A
:100BC00098470B4B98470B4B98470B4B984740F671
:100BD000FF700A4B98470A4A136943F40073136184
:100BE000084B984708BD00BF00400041310F00008E
:100BF000450F0000250F0000690F0000010F0000E5
:100C0000000800406D0C000008B5164A138C03F074
:100C10001F0303EB4301144800EB8100128C12F414
:100C2000807F05D10F4A128C12F4007F0BD108BDD2
:100C30001A0102F1824202F52042012182F84E108F
:100C40004368984708BD1A0102F1824202F520422A
:100C5000022182F84E1003EB4303034A52F823307B
:100C60009847E4E700A00041A000002070B4314A9A
:100C7000138823F002031B041B0C1380538823F4F6
:100C80007C531B041B0C538013889BB243F001035D
:100C90001380138813F0010FFBD1264B4FF47062C1
:100CA0001A805A7B02F0FE025A7300215961224ACF
:100CB0005A63224A9A63224B1F4C0E461D68080154
:100CC00000F1824202F5204215641D7982F84550F8
:100CD0005D7982F84650DD8822182552D6600131B0
:100CE00008332029EAD11F23012016499AB213F4B0
:100CF000004F0BD00133242BF8D10E4A13889BB23E
:100D000043F002031380002070BC70475C0902F0BE
:100D10001F0200FA02F204F1200541F82520BFF37A
:100D20004F8FBFF36F8F04F1600541F8252041F824
:100D30002420DFE700A000417002002070040020A2
:100D40003C26000000E100E091B942B9000100F149
:100D5000824000F52040022380F84C3070470001AB
:100D600000F1824000F52040022380F84D307047AA
:100D7000012900D0704742B1000100F1824000F526
:100D80002040012380F84D30F4E7000100F182405B
:100D900000F5204080F84C1070470000024B03EB38
:100DA000001081600020704770020020024B03EBAE
:100DB00000104160002070477002002030B4144CD5
:100DC0000201A3189D68A35AC3F30123A25A12F487
:100DD000006F06D001FA03F42C440D4A02EB001216
:100DE00094600B4C0201A5186D68A25A12F4806F32
:100DF00005D001FA03F32B4404EB0012536089B2CF
:100E0000034B03EB00104180002030BC704700BF53
:100E10007002002010B40D4C0301E25A92B242F06D
:100E20000102E25203F1824303F520431A6C42F0BF
:100E300002021A6431B1064A1169012303FA00F073
:100E40000843106100205DF8044B704770020020D9
:100E500000A0004101EB4101024B03EB8101016065
:100E600000207047A000002008B5014B984708BD3E
:100E7000090C000008B5014B984708BD090C00009B
:100E800008B5014B984708BD090C000008B5014B97
:100E9000984708BD090C000008B5014B984708BDEC
:100EA000090C000030B4144800F143050346134C0C
:100EB0001A1A13F8011B483244F82210AB42F7D13A
:100EC0000D4800F142048030002134F8023FCA008E
:100ED00002F1824202F56042136250F8043FDBB235
:100EE00082F82530DB43DBB282F82430013120293F
:100EF000EBD1002030BC70473C27000000E00041EF
:100F000010F0010F08D0054A054B1A62194643F646
:100F1000FD724B681342FCD1704700BF01210100F4
:100F2000001C00400122014B5A717047000800402C
:100F3000034BDA6902F47C52DA6101221A747047B9
:100F400000140040064A074B9A611A46136913F0D1
:100F5000020FFBD0034A936943F08003936170470B
:100F600046260003001000407047000000B583B023
:100F70000D4B9B78DBB20193019B13F0020F06D05F
:100F80000A4B1B681BB1084A5068984709E0019B4F
:100F900013F0010F05D0054B5B6813B1024A50688E
:100FA000984703B05DF804FB000002417006002082
:100FB00038B50C46054630221749003018BF0120CD
:100FC000164B9847EC600123238048F20302236903
:100FD0001342FCD1EA68136913F0010FFBD14FF4FF
:100FE00080735360EA6848F28003138048F203017B
:100FF00013690B42FCD1EA684FF400631362136972
:1010000013F0600FFBD1EB684FF480725A81044BF0
:101010001D60002038BD00BF402800000D09000001
:101020002002002010B5044610B3C068003018BF7D
:1010300001205E220F49104B98474FF400620F4B7E
:101040001A60E26800239361136913F0080FFBD163
:10105000E3681A6912F0080FFBD11A8892B242F0C5
:1010600002021A8048F203011A690A42FCD110BD3B
:101070000020DEE7402800000D09000000E100E04C
:10108000C26848F2030113690B42FCD11088C0F317
:10109000400070470020704710B5084B1C68E3689B
:1010A0009B8913F4807F07D023680BB120469847B3
:1010B000E3684FF480729A8110BD00BF20020020C7
:1010C00070B489B006466C460D4D0FCD0FC495E83F
:1010D0000F0084E80F00009BB3420DD0314601ABF6
:1010E000012053F8042B8A4207D001300828F8D198
:1010F000002009B070BC70470020C0B2F9E700BF03
:101100005828000010B50446214B9847022805D006
:1011100040F247221F4900201F4B9847E36913F014
:10112000010F19D1E36913F0030FFBD1236813F00A
:10113000020F0BD0236823F002032360E36913F04E
:10114000030FFBD1E36913F0020FFBD105232360EA
:10115000E36913F0030FFBD1E36913F0010FFBD137
:101160000E4B2360E36913F0030FFBD14FF44033C0
:101170006360E36913F01F0FFBD1094BA3604DF6C9
:10118000AD03A3810020A07384F8300010BD00BF20
:10119000C1100000902800000D090000040010405C
:1011A0000200700038B50C460546BB2205490030E8
:1011B00018BF0120044B98472C602046034B9847EA
:1011C00038BD00BF902800000D0900000511000087
:1011D0000268136843F002031360D36913F0030F2E
:1011E000FBD170470368996270470368986AC0B280
:1011F00070470368187E00F0010070470368187E8E
:10120000C0F3400070470368187EC0F38000704749
:101210000122014B1A7070472402002008B50849CA
:101220000020084B984708490020084B98470421A4
:101230000020074B984700210846064B984708BDF9
:1012400000000020AD0D0000342000439D0D000083
:10125000BD0D0000150E000010B50F4901200F4B09
:1012600098470F4901200F4B9847042101200E4B4E
:1012700098470122002110460C4B98470C4C012145
:1012800020460C4B984723680B4A1A600021012026
:101290000A4B984710BD00BF40200043AD0D000031
:1012A000280200209D0D0000BD0D0000490D00002A
:1012B00080060020550E000011120000150E0000DF
:1012C00080B51F4B98471F481F4B98471F4B9847A7
:1012D0001F4B98471F48204B984700211F48204B21
:1012E0009847204A936B43F00103936340F2FC73E9
:1012F000116B1942FCD11C4C1C4E1D4F2378002B46
:10130000FCD000232370336C43F002033364336D4D
:1013100043F00203336538460F4B9847A18889B2E2
:101320001448154DA847E18889B21448A847218977
:1013300089B21348A847618989B21248A847DDE7F6
:10134000D10200004C020020890700005912000061
:101350001D120000AC280000A1150000480200206A
:10136000DD050000002000432402002000A0004111
:10137000CC280000F4280000B91400000429000063
:10138000142900002429000040B908B50B46114675
:101390001846044B984740EAE07008BD4FF0FF3014
:1013A000704700BFF91300000138022808D808B5BB
:1013B0000B4611461846044B984740EAE07008BDBA
:1013C0004FF0FF30704700BF1D14000070B5064697
:1013D000064D2B6800219868054CA0472B6800211A
:1013E0005868A047034B1E6070BD00BF100000206E
:1013F000B11500003002002008B5064B1B6833B160
:101400000A46014692B21846034B984708BD002091
:1014100008BD00BF300200204506000008B5064B9D
:101420001B6833B10A46014692B21846034B9847EF
:1014300008BD002008BD00BF3002002015060000D6
:1014400010B5044C2046044B98472046034B984760
:1014500010BD00BF3C020020E1080000CD130000D9
:1014600070B50D4E0D4CA41BA4100025A54209D14A
:101470000B4E0C4C01F0AAFAA41BA4100025A542A7
:1014800005D170BD56F8253098470135EEE756F87E
:10149000253098470135F2E7D8290000D829000007
:1014A000D8290000DC29000002440346934200D101
:1014B000704703F8011BF9E70FB40A4B13B51C681A
:1014C00024B1A36913B9204600F0DAFA05AB049AF7
:1014D000A1680193204600F09DFC02B0BDE81040D9
:1014E00004B070471000002070B50E46054618B1D4
:1014F00083690BB900F0C4FAAB69AC6813B928462C
:1015000000F0BEFA234B9C4217D16C68A3891B07DD
:101510001DD52369DBB1013EA36816F8011F013B0D
:10152000A360E9B9002B2EDA22460A21284600F0F2
:10153000F5F8013011D00A2070BD174B9C4201D143
:10154000AC68E3E7154B9C4208BFEC68DEE7214638
:10155000284600F035F90028DDD04FF0FF3070BD8F
:10156000002B04DAA269934206DB0A2904D023681F
:101570005A1C22601970CFE72246284600F0CEF8A8
:101580000130C9D1E9E723680A205A1C226018708B
:1015900070BD00BF582900007829000038290000DC
:1015A000024B01461868FFF79FBF00BF10000020E4
:1015B00000294FF480630CBF0222002200F000B823
:1015C0002DE9F7431D46514B1E6804460F469046D1
:1015D00026B1B36913B9304600F052FA4C4B9C4225
:1015E00052D17468B8F1020F06D0B8F1010F00F2C1
:1015F0008980002DC0F286802146304600F0D6F961
:10160000616B41B104F14403994202D0304600F0CD
:101610002DFB002363630023A3616360A3891B0682
:1016200003D52169304600F021FBA38923F44A63E6
:1016300023F00303B8F1020FA3815DD001AB6A462A
:101640002146304600F0A6FAA3891843A0812DBB9D
:10165000009D284600F002FB074600284ED1DDF829
:101660000090A9453CD14FF0FF30A38943F002031D
:10167000A3810023A36004F14703236023610123B6
:10168000636103B0BDE8F083224B9C4201D1B46892
:10169000A8E7214B9C4208BFF468A3E7002FD8D0ED
:1016A000B36913B9304600F0EBF9B8F1010F08BF88
:1016B000A389276004BF43F00103A381A3892761A5
:1016C00013F0080065611BD013F0010018BF6D42D4
:1016D0004FF000031DBFA360A5611846A560D0E7C9
:1016E000484600F0BBFA07460028BCD0A38943F067
:1016F0008003A3814D46D3E70020B6E7A946F5E76E
:10170000A060BEE74FF0FF30BBE700BF1000002035
:10171000582900007829000038290000F8B50E4645
:101720001446054618B183690BB900F0A9F9214B9D
:101730009C422AD16C68A369A360A3891A072ED59D
:10174000236963B323692068C01A6369F6B29842BB
:10175000374604DB2146284600F028F928BBA36859
:10176000013BA36023685A1C22601E70636901302C
:10177000984204D0A389DB0719D50A2E17D1214638
:10178000284600F013F990B10FE00B4B9C4201D1B9
:10179000AC68D0E7094B9C4208BFEC68CBE7214618
:1017A000284600F00DF80028CCD04FF0FF3738461F
:1017B000F8BD00BF58290000782900003829000032
:1017C000324B70B51D6806460C4625B1AB6913B99E
:1017D000284600F055F92E4B9C420FD16C68B4F9A5
:1017E0000C309AB215072CD4D00611D409223260DD
:1017F00043F04003A3814FF0FF3070BD254B9C4266
:1018000001D1AC68EBE7244B9C4208BFEC68E6E7EB
:10181000510712D5616B41B104F14403994202D0E2
:10182000304600F023FA00236363A38923F02403E6
:10183000A3810023636023692360A38943F0080325
:10184000A38123694BB9A38903F42073B3F5007F07
:1018500003D02146304600F0C1F9A28912F00103FD
:101860000CD00023A36063695B42A361236953B971
:10187000B4F90C3013F08000BAD170BD920758BF94
:101880006369A360F2E70020F7E700BF10000020C3
:101890005829000078290000382900008A892DE99C
:1018A000F041054610070C465AD44B68002B05DC66
:1018B0000B6C002B02DC0020BDE8F081E66A002EF4
:1018C000F9D0002312F480522F682B6033D0606D62
:1018D000A3895A0705D56368C01A636B0BB1236CE3
:1018E000C01A00230246E66A216A2846B047431C14
:1018F000A38906D129681D294BD82B4ACA40D6078F
:1019000047D500226260D9042269226004D5421CB6
:1019100001D12B6803B96065616B2F600029CAD0C3
:1019200004F14403994202D0284600F09FF90020B8
:101930006063BDE8F081216A01232846B047411C5D
:10194000C6D12B68002BC3D01D2B01D0162B01D183
:101950002F60B0E7A38943F04003A381BDE8F08185
:101960000F69002FA7D093070E6808BF4B690F605F
:1019700018BF0023A6EB07088B60B8F1000F9ADDB3
:1019800043463A46216AA66A2846B047002807DC43
:10199000A38943F04003A3814FF0FF30BDE8F081FD
:1019A0000744A8EB0008E8E70100402038B50B69C0
:1019B00005460C46DBB118B183690BB900F060F83D
:1019C0000C4B9C4209D16C68B4F90C307BB12146B8
:1019D0002846BDE83840FFF761BF074B9C4201D164
:1019E000AC68F1E7054B9C4208BFEC68ECE70020CF
:1019F00038BD00BF582900007829000038290000B0
:101A0000014900F0A9B800BFAD190000002310B5CE
:101A1000044603604360836081814366C281036141
:101A200043618361194608225C30FFF73DFD054B99
:101A30006362054BA362054BE362054B246223639B
:101A400010BD00BF8D230000AF230000E72300007E
:101A50000B24000070B54A1E682555430E4605F15B
:101A6000740100F051F9044640B1002180E84200C1
:101A70000C30A06005F16802FFF716FD204670BD2E
:101A8000836910B5044633BB8364C3640365124B9A
:101A9000124A1B688262984204BF0123836100F0EE
:101AA0001FF86060204600F01BF8A060204600F0A0
:101AB00017F80022E06004216068FFF7A7FF012209
:101AC0000921A068FFF7A2FF02221221E068FFF7B8
:101AD0009DFF0123A36110BD34290000011A0000FD
:101AE000F8B51C4B1E68B369074613B93046FFF7BB
:101AF000C7FF4836B4687368013B03D5336833B118
:101B00003668F7E7B4F90C506DB16834F4E7042196
:101B10003846FFF79FFF30600028F1D10C233B606F
:101B200004462046F8BD4FF6FF73E3810123A381ED
:101B300065662560A560656025616561A56108220F
:101B4000294604F15C00FFF7AFFC6563A563A5645B
:101B5000E564E6E7342900002DE9F843804689462C
:101B600000F14804002614B93046BDE8F883A568A2
:101B70006768013F01D52468F5E7AB89012B07D9D8
:101B8000B5F90E30013303D029464046C847064315
:101B90006835EEE770B50E46B1F90E10002990B029
:101BA00014461D4607DA00232B60B3891A0610D4A9
:101BB0004FF480630EE001AA00F04EFC0028F2DB37
:101BC000029A02F47042A2F500535A425A412A6026
:101BD000EEE740230020236010B070BD8B8973B501
:101BE0009D0706460C4607D504F147032360236191
:101BF0000123636102B070BD01AB6A46FFF7CAFF03
:101C000000990546304600F07FF848B9B4F90C3029
:101C10009A05EFD423F0030343F00203A381E3E723
:101C20000D4BB362A389206043F08003A381009B26
:101C30006361019B20615BB1B4F90E10304600F086
:101C40001DFC28B1A38923F0030343F00103A38102
:101C5000A3891D43A581CDE7011A0000024B01466F
:101C6000186800F051B800BF1000002038B50546D4
:101C7000002945D051F8043C0C1F002BB8BFE418D4
:101C800000F06EFC1F4A1368104633B9636014609D
:101C90002846BDE8384000F064BCA3420CD9216856
:101CA0006218934204BF1A685B68636004BF5218ED
:101CB00022600460ECE713465A680AB1A242FAD9DE
:101CC00019685818A0420BD1206801445818824264
:101CD0001960DDD1106852685A6001441960D7E775
:101CE00002D90C232B60D3E7206821188A4204BF55
:101CF00011685268626004BF091821605C60C7E720
:101D000038BD00BF3402002070B5CD1C25F003059E
:101D100008350C2D38BF0C25002D064601DBA942E5
:101D200003D90C233360002070BD00F019FC234A56
:101D30001468214691B9224C23681BB9304600F043
:101D400015FB20602946304600F010FB431C26D1CD
:101D50000C233360304600F004FCE4E70B685B1BA7
:101D60001AD40B2B0FD90B60CD50CC18304600F095
:101D7000F8FB04F10B00231D20F00700C31A1BD051
:101D80005A42E25070BD8C420DBF63684B6863607D
:101D9000136018BF0C46E9E70C464968CAE7C41C43
:101DA00024F00304A04205D0211A304600F0DEFAE8
:101DB0000130CDD02560D9E770BD00BF34020020CE
:101DC000380200209368013B002B10B4936008DABE
:101DD0009469A34202DBCBB20A2B02D110BCFFF7FD
:101DE0009DBC1368581C10601970C8B210BC7047B5
:101DF000F8B506460F461446D518AC4201D100206E
:101E000007E03A4614F8011B3046FFF7DBFF431C9E
:101E1000F3D1F8BD2DE9F04F9DB00C461746039362
:101E2000064618B183690BB9FFF72AFE7C4B9C422A
:101E300057D17468A38918075DD52369002B5AD040
:101E40000023099320238DF8293030238DF82A3080
:101E50004FF0010BB846454615F8013B002B55D114
:101E6000B8EB070A0BD053463A4621463046FFF7F7
:101E7000BFFF013000F0C480099B5344099398F8D8
:101E80000030002B00F0BC8000234FF0FF320493A1
:101E90000793059206938DF853301A9305222978FB
:101EA000604800F00DFB05F10108049B002831D1CA
:101EB000D90644BF20228DF853201A0744BF2B2295
:101EC0008DF853202A782A2A2CD0079A00210A203C
:101ED000A846013598F80030303B092B6DD971B315
:101EE00026E0514B9C4201D1B468A3E74F4B9C4282
:101EF00008BFF4689EE721463046FFF761FC0028E2
:101F00009ED04FF0FF301DB0BDE8F08F252BA7D03D
:101F1000A846A0E7434A801A0BFA00F01843049041
:101F20004546BBE7039A111D12680391002A01DBA5
:101F3000079204E0524243F002030792049398F898
:101F400000302E2B10D198F801302A2B08F1010116
:101F500037D1039B1A1D1B680392002BB8BF4FF0AB
:101F6000FF3308F102080593314D98F80010032261
:101F7000284600F0A5FA40B14023401B03FA00F0C8
:101F8000049B0343049308F1010898F800102948C2
:101F90008DF82810062208F1010700F091FA0028B8
:101FA00034D0254B03BB039B073323F007030833CF
:101FB0000393099B4B4409934CE700FB0232012138
:101FC00086E70023059318460A258846013198F8CC
:101FD0000020303A092A03D9002BC5D00590C3E769
:101FE00005FB00200123F0E703AB00932246134BCF
:101FF00004A93046AFF30080B0F1FF3F8146D8D14D
:10200000A3895B063FF57DAF09987CE703AB00939E
:1020100022460A4B04A9304600F088F8ECE700BFDE
:10202000582900009829000078290000382900006C
:102030009E290000A229000000000000F11D000000
:102040002DE9F04791461F468A680B69DDF820802C
:102050009342B8BF1346C9F8003091F843200646B2
:102060000C4612B10133C9F800302368990642BF0B
:10207000D9F800300233C9F80030256815F006059C
:1020800007D104F1190AE368D9F800209B1A9D4290
:1020900029DB94F843302268003318BF01239206ED
:1020A0002ED404F1430239463046C047013021D0D6
:1020B0002368E568D9F8002003F00603042B08BF65
:1020C000AD1AA36822690CBF25EAE5750025934285
:1020D000C4BF9B1AED184FF000091A344D451BD1AF
:1020E0000020BDE8F0870123524639463046C047FC
:1020F000013003D14FF0FF30BDE8F0870135C2E772
:10210000E1185A1C302081F84300224494F845100D
:1021100082F843100233C4E7012322463946304691
:10212000C0470130E6D009F10109D7E72DE9F043B6
:1021300017460A7E85B06E2A984606460C460C9BCA
:1021400001F1430E00F0BC801AD8632A2ED00AD8C1
:10215000002A00F0C880582A00F08A8004F1420565
:1021600084F842202AE0642A01D0692AF6D1216845
:102170001A6811F0800F23D0111D1960136827E031
:10218000732A00F0B48008D86F2A2AD0702AE5D1CB
:102190000A6842F020020A6003E0752A21D0782AFA
:1021A000DCD1782284F845206E4964E01A6801F198
:1021B0004205111D1960136884F842300123A3E021
:1021C00011F0400F02F104011960D7D0B2F90030CC
:1021D000002B03DA2D225B4284F8432062490A2255
:1021E00017E02068196810F0800F03D0081D1860F0
:1021F0000B6806E010F0400F01F104001860F7D002
:102200000B8859496F2A14BF0A220822002084F83B
:1022100043006568A560002DC0F29C80206820F016
:1022200004002060002B3FD1002D40F095807546C2
:10223000082A0BD12368DA0708D5236962689A4215
:10224000DEBF302305F8013C05F1FF35AEEB050399
:102250002361CDF800803B4603AA21463046FFF7B4
:10226000EFFE013055D14FF0FF3005B0BDE8F083EF
:1022700081F845203C492268186812F0800F00F16F
:1022800004051D6001D0036802E05506FBD50388F4
:10229000D00744BF42F0200222601BB9226822F01E
:1022A000200222601022B1E77546B3FBF2F002FB78
:1022B0001033CB5C05F8013D03460028F5D1B7E7A4
:1022C00008681A68496910F0800F04D0101D186062
:1022D0001368196007E010F0400F02F10400186065
:1022E0001368F6D01980002323617546B1E71A6898
:1022F000111D1960156862680021284600F0E0F899
:1023000008B1401B606063682361002384F8433098
:102310009FE723692A4639463046C0470130A2D09C
:1023200023689B0707D5002504F11909E368039A80
:102330009B1A9D4205DBE068039B9842B8BF184694
:1023400093E701234A4639463046C04701308AD0D8
:102350000135EBE7002BA7D10B7884F8423004F16C
:10236000420565E7BA290000A929000038B5064CE6
:102370000023054608462360FEF7FCFA431C02D101
:10238000236803B12B6038BD8406002010B50C46CD
:10239000B1F90E1000F0E6F80028ABBF636DA38919
:1023A0001B1823F48053ACBF6365A38110BD2DE9D6
:1023B000F0411F468B89DB0505460C46164605D5C0
:1023C00002230022B1F90E1000F068F8A389B4F9D5
:1023D0000E1023F48053A38132463B462846BDE8C5
:1023E000F04100F017B810B50C46B1F90E1000F02E
:1023F00055F8431CA38915BF606523F4805343F44B
:102400008053A38118BFA38110BDB1F90E1000F055
:1024100013B8000038B5074C05460846114600229F
:1024200022601A46FEF7C0FF431C02D1236803B1A5
:102430002B6038BD8406002038B5064C00230546C5
:1024400008462360FEF7A8FA431C02D1236803B1B3
:102450002B6038BD8406002038B5074C00230546A4
:10246000084611462360FEF79AFA431C02D12368FE
:1024700003B12B6038BD00BF8406002038B5064C80
:102480000023054608462360FEF78EFA431C02D15E
:10249000236803B12B6038BD8406002038B5074C93
:1024A000054608461146002222601A46FEF77EFACB
:1024B000431C02D1236803B12B6038BD8406002081
:1024C00001F0FF01102A2BDB10F0070F08D010F8E5
:1024D000013B013A8B422DD010F0070F42B3F6D1E9
:1024E000F0B441EA012141EA014122F007047FF002
:1024F00000070023F0E80256083C85EA010586EA59
:10250000010685FA47F5A3FA87F586FA47F6A5FA94
:1025100087F68EB9EED1F0BC01F0FF0102F00702A0
:1025200032B110F8013B013A83EA010313B1F8D14B
:102530000020704701387047002D06BF354603382C
:10254000073815F0010F07D1013015F4807F02BF65
:10255000013015F4C03F0130F0BC0138704700BFB6
:102560007047704738B5074C0546084611460022AB
:1025700022601A46FEF708FF431C02D1236803B10C
:102580002B6038BD840600202E2E2F68616C2F73BF
:1025900072632F68616C5F6164635F73796E632E31
:1025A000630000002E2E2F68616C2F7372632F68FA
:1025B000616C5F696F2E63002E2E2F68616C2F7324
:1025C00072632F68616C5F74696D65722E630000C1
:1025D0002E2E2F68616C2F7372632F68616C5F758C
:1025E000736172745F73796E632E63002E2E2F6891
:1025F000616C2F7574696C732F7372632F757469B6
:102600006C735F6C6973742E6300000001004004FA
:10261000180003120618000000000000000000006F
:10262000000000002E2E2F68706C2F6164632F68ED
:10263000706C5F6164632E630000000040472000FF
:1026400000000816404620000000080900000000B5
:10265000000000000000000000000000000000007A
:10266000000000000000000000000000000000006A
:10267000000000000000000000000000000000005A
:10268000000000000000000000000000000000004A
:10269000000000000000000000000000000000003A
:1026A000000000000000000000000000000000002A
:1026B000000000000000000000000000000000001A
:1026C000000000000000000000000000000000000A
:1026D00000000000000000000000000000000000FA
:1026E00000000000000000000000000000000000EA
:1026F00000000000000000000000000000000000DA
:1027000000000000000000000000000000000000C9
:1027100000000000000000000000000000000000B9
:1027200000000000000000000000000000000000A9
:102730000000000000000000000000000000000099
:102740000000000000000000000000000000000089
:102750000000000000000000000000000000000079
:102760000000000000000000000000000000000069
:102770000000000000010000000000000000000058
:102780000C420000000000000000000000000000FB
:102790000000000000000000000000000000000039
:1027A0000000000000000000000000000000000029
:1027B0000000000000000000000000000000000019
:1027C0000000000000000000000000000000000009
:1027D00000000000000000000000000000000000F9
:1027E00000000000000000000000000000000000E9
:1027F00000000000000000000000000000000000D9
:1028000000000000000000000000000000000000C8
:1028100000000000000000000000000000000000B8
:1028200000000000000000000000000000000000A8
:102830000000000000000000000000000000000098
:102840002E2E2F68706C2F7274632F68706C5F72FD
:1028500074632E630000000000300040003400402C
:1028600000200141004001410000004300040043FA
:1028700000080043000C00430000000000000000BE
:102880000000000000000000000000000000000048
:102890002E2E2F68706C2F736572636F6D2F6870AA
:1028A0006C5F736572636F6D2E6300000D0A2041CB
:1028B000444320444D412053657175656E63696ED4
:1028C00067206578616D706C65200D000D0A2041F0
:1028D000444320636F6E76657273696F6E206F6616
:1028E000203420696E7075747320646F6E65200DDE
:1028F0000000000041494E353A20253034640D0A6D
:102900000000000041494E363A20253034640D0A5B
:102910000000000041494E373A20253034640D0A4A
:102920000000000041494E383A20253034640D0A39
:102930000000000014000020000000000000000063
:102940000000000000000000000000000000000087
:102950000000000000000000000000000000000077
:102960000000000000000000000000000000000067
:102970000000000000000000000000000000000057
:102980000000000000000000000000000000000047
:102990000000000000000000232D302B2000686C98
:1029A0004C00656667454647003031323334353672
:1029B00037383941424344454600303132333435AB
:1029C000363738396162636465660000F8B500BF68
:1029D000F8BC08BC9E46704789020000F8B500BFED
:0C29E000F8BC08BC9E4670476502000071
:1029EC000518000006180000071800000818000061
:1029FC001400002000000000582900007829000075
:102A0C003829000000000000000000000000000059
:102A1C0000000000000000000000000000000000AA
:102A2C00000000000000000000000000000000009A
:102A3C00000000000000000000000000000000008A
:102A4C00000000000000000000000000000000007A
:042A5C000000000076
:00000001FF
